{
  "_format": "hh-sol-artifact-1",
  "contractName": "AMM",
  "sourceName": "contracts/AMM/AMM.sol",
  "abi": [
    {
      "inputs": [
        {
          "internalType": "address",
          "name": "_token0",
          "type": "address"
        },
        {
          "internalType": "address",
          "name": "_token1",
          "type": "address"
        }
      ],
      "stateMutability": "nonpayable",
      "type": "constructor"
    },
    {
      "anonymous": false,
      "inputs": [
        {
          "indexed": true,
          "internalType": "address",
          "name": "owner",
          "type": "address"
        },
        {
          "indexed": true,
          "internalType": "address",
          "name": "spender",
          "type": "address"
        },
        {
          "indexed": false,
          "internalType": "uint256",
          "name": "value",
          "type": "uint256"
        }
      ],
      "name": "Approval",
      "type": "event"
    },
    {
      "anonymous": false,
      "inputs": [
        {
          "indexed": true,
          "internalType": "address",
          "name": "previousOwner",
          "type": "address"
        },
        {
          "indexed": true,
          "internalType": "address",
          "name": "newOwner",
          "type": "address"
        }
      ],
      "name": "OwnershipTransferred",
      "type": "event"
    },
    {
      "anonymous": false,
      "inputs": [
        {
          "indexed": true,
          "internalType": "address",
          "name": "from",
          "type": "address"
        },
        {
          "indexed": true,
          "internalType": "address",
          "name": "to",
          "type": "address"
        },
        {
          "indexed": false,
          "internalType": "uint256",
          "name": "value",
          "type": "uint256"
        }
      ],
      "name": "Transfer",
      "type": "event"
    },
    {
      "inputs": [],
      "name": "FEE",
      "outputs": [
        {
          "internalType": "uint256",
          "name": "",
          "type": "uint256"
        }
      ],
      "stateMutability": "view",
      "type": "function"
    },
    {
      "inputs": [
        {
          "internalType": "uint256",
          "name": "_amount0",
          "type": "uint256"
        },
        {
          "internalType": "uint256",
          "name": "_amount1",
          "type": "uint256"
        }
      ],
      "name": "addLiquidity",
      "outputs": [
        {
          "internalType": "uint256",
          "name": "shares",
          "type": "uint256"
        }
      ],
      "stateMutability": "nonpayable",
      "type": "function"
    },
    {
      "inputs": [
        {
          "internalType": "address",
          "name": "owner",
          "type": "address"
        },
        {
          "internalType": "address",
          "name": "spender",
          "type": "address"
        }
      ],
      "name": "allowance",
      "outputs": [
        {
          "internalType": "uint256",
          "name": "",
          "type": "uint256"
        }
      ],
      "stateMutability": "view",
      "type": "function"
    },
    {
      "inputs": [
        {
          "internalType": "address",
          "name": "spender",
          "type": "address"
        },
        {
          "internalType": "uint256",
          "name": "amount",
          "type": "uint256"
        }
      ],
      "name": "approve",
      "outputs": [
        {
          "internalType": "bool",
          "name": "",
          "type": "bool"
        }
      ],
      "stateMutability": "nonpayable",
      "type": "function"
    },
    {
      "inputs": [
        {
          "internalType": "address",
          "name": "account",
          "type": "address"
        }
      ],
      "name": "balanceOf",
      "outputs": [
        {
          "internalType": "uint256",
          "name": "",
          "type": "uint256"
        }
      ],
      "stateMutability": "view",
      "type": "function"
    },
    {
      "inputs": [],
      "name": "decimals",
      "outputs": [
        {
          "internalType": "uint8",
          "name": "",
          "type": "uint8"
        }
      ],
      "stateMutability": "view",
      "type": "function"
    },
    {
      "inputs": [
        {
          "internalType": "address",
          "name": "spender",
          "type": "address"
        },
        {
          "internalType": "uint256",
          "name": "subtractedValue",
          "type": "uint256"
        }
      ],
      "name": "decreaseAllowance",
      "outputs": [
        {
          "internalType": "bool",
          "name": "",
          "type": "bool"
        }
      ],
      "stateMutability": "nonpayable",
      "type": "function"
    },
    {
      "inputs": [
        {
          "internalType": "address",
          "name": "spender",
          "type": "address"
        },
        {
          "internalType": "uint256",
          "name": "addedValue",
          "type": "uint256"
        }
      ],
      "name": "increaseAllowance",
      "outputs": [
        {
          "internalType": "bool",
          "name": "",
          "type": "bool"
        }
      ],
      "stateMutability": "nonpayable",
      "type": "function"
    },
    {
      "inputs": [
        {
          "internalType": "uint256",
          "name": "_fee",
          "type": "uint256"
        }
      ],
      "name": "modifyFee",
      "outputs": [],
      "stateMutability": "nonpayable",
      "type": "function"
    },
    {
      "inputs": [],
      "name": "name",
      "outputs": [
        {
          "internalType": "string",
          "name": "",
          "type": "string"
        }
      ],
      "stateMutability": "view",
      "type": "function"
    },
    {
      "inputs": [],
      "name": "owner",
      "outputs": [
        {
          "internalType": "address",
          "name": "",
          "type": "address"
        }
      ],
      "stateMutability": "view",
      "type": "function"
    },
    {
      "inputs": [
        {
          "internalType": "uint256",
          "name": "_shares",
          "type": "uint256"
        }
      ],
      "name": "removeLiquidity",
      "outputs": [
        {
          "internalType": "uint256",
          "name": "amount0",
          "type": "uint256"
        },
        {
          "internalType": "uint256",
          "name": "amount1",
          "type": "uint256"
        }
      ],
      "stateMutability": "nonpayable",
      "type": "function"
    },
    {
      "inputs": [],
      "name": "renounceOwnership",
      "outputs": [],
      "stateMutability": "nonpayable",
      "type": "function"
    },
    {
      "inputs": [],
      "name": "reserve0",
      "outputs": [
        {
          "internalType": "uint256",
          "name": "",
          "type": "uint256"
        }
      ],
      "stateMutability": "view",
      "type": "function"
    },
    {
      "inputs": [],
      "name": "reserve1",
      "outputs": [
        {
          "internalType": "uint256",
          "name": "",
          "type": "uint256"
        }
      ],
      "stateMutability": "view",
      "type": "function"
    },
    {
      "inputs": [
        {
          "internalType": "address",
          "name": "_tokenIn",
          "type": "address"
        },
        {
          "internalType": "uint256",
          "name": "_amountIn",
          "type": "uint256"
        }
      ],
      "name": "swap",
      "outputs": [
        {
          "internalType": "uint256",
          "name": "amountOut",
          "type": "uint256"
        }
      ],
      "stateMutability": "nonpayable",
      "type": "function"
    },
    {
      "inputs": [],
      "name": "symbol",
      "outputs": [
        {
          "internalType": "string",
          "name": "",
          "type": "string"
        }
      ],
      "stateMutability": "view",
      "type": "function"
    },
    {
      "inputs": [],
      "name": "tokenA",
      "outputs": [
        {
          "internalType": "contract IERC20",
          "name": "",
          "type": "address"
        }
      ],
      "stateMutability": "view",
      "type": "function"
    },
    {
      "inputs": [],
      "name": "tokenB",
      "outputs": [
        {
          "internalType": "contract IERC20",
          "name": "",
          "type": "address"
        }
      ],
      "stateMutability": "view",
      "type": "function"
    },
    {
      "inputs": [],
      "name": "totalSupply",
      "outputs": [
        {
          "internalType": "uint256",
          "name": "",
          "type": "uint256"
        }
      ],
      "stateMutability": "view",
      "type": "function"
    },
    {
      "inputs": [
        {
          "internalType": "address",
          "name": "to",
          "type": "address"
        },
        {
          "internalType": "uint256",
          "name": "amount",
          "type": "uint256"
        }
      ],
      "name": "transfer",
      "outputs": [
        {
          "internalType": "bool",
          "name": "",
          "type": "bool"
        }
      ],
      "stateMutability": "nonpayable",
      "type": "function"
    },
    {
      "inputs": [
        {
          "internalType": "address",
          "name": "from",
          "type": "address"
        },
        {
          "internalType": "address",
          "name": "to",
          "type": "address"
        },
        {
          "internalType": "uint256",
          "name": "amount",
          "type": "uint256"
        }
      ],
      "name": "transferFrom",
      "outputs": [
        {
          "internalType": "bool",
          "name": "",
          "type": "bool"
        }
      ],
      "stateMutability": "nonpayable",
      "type": "function"
    },
    {
      "inputs": [
        {
          "internalType": "address",
          "name": "newOwner",
          "type": "address"
        }
      ],
      "name": "transferOwnership",
      "outputs": [],
      "stateMutability": "nonpayable",
      "type": "function"
    }
  ],
  "bytecode": "0x60c06040526103e56008553480156200001757600080fd5b50604051620033b2380380620033b283398181016040528101906200003d919062000355565b6040518060400160405280600781526020017f4c50546f6b656e000000000000000000000000000000000000000000000000008152506040518060400160405280600381526020017f4c505400000000000000000000000000000000000000000000000000000000008152508160039080519060200190620000c19291906200023b565b508060049080519060200190620000da9291906200023b565b505050620000fd620000f16200016d60201b60201c565b6200017560201b60201c565b8173ffffffffffffffffffffffffffffffffffffffff1660808173ffffffffffffffffffffffffffffffffffffffff16815250508073ffffffffffffffffffffffffffffffffffffffff1660a08173ffffffffffffffffffffffffffffffffffffffff1681525050505062000401565b600033905090565b6000600560009054906101000a900473ffffffffffffffffffffffffffffffffffffffff16905081600560006101000a81548173ffffffffffffffffffffffffffffffffffffffff021916908373ffffffffffffffffffffffffffffffffffffffff1602179055508173ffffffffffffffffffffffffffffffffffffffff168173ffffffffffffffffffffffffffffffffffffffff167f8be0079c531659141344cd1fd0a4f28419497f9722a3daafe3b4186f6b6457e060405160405180910390a35050565b8280546200024990620003cb565b90600052602060002090601f0160209004810192826200026d5760008555620002b9565b82601f106200028857805160ff1916838001178555620002b9565b82800160010185558215620002b9579182015b82811115620002b85782518255916020019190600101906200029b565b5b509050620002c89190620002cc565b5090565b5b80821115620002e7576000816000905550600101620002cd565b5090565b600080fd5b600073ffffffffffffffffffffffffffffffffffffffff82169050919050565b60006200031d82620002f0565b9050919050565b6200032f8162000310565b81146200033b57600080fd5b50565b6000815190506200034f8162000324565b92915050565b600080604083850312156200036f576200036e620002eb565b5b60006200037f858286016200033e565b925050602062000392858286016200033e565b9150509250929050565b7f4e487b7100000000000000000000000000000000000000000000000000000000600052602260045260246000fd5b60006002820490506001821680620003e457607f821691505b60208210811415620003fb57620003fa6200039c565b5b50919050565b60805160a051612f146200049e60003960008181610601015281816107e0015281816109d401528181610b1d01528181610d9301528181610f2f0152818161105f015281816110cd015261132b015260008181610558015281816107420152818161093501528181610a7c01528181610cf901528181610eda0152818161100301528181611080015281816110ac01526112910152612f146000f3fe608060405234801561001057600080fd5b506004361061014d5760003560e01c8063715018a6116100c3578063a9059cbb1161007c578063a9059cbb146103bb578063c57981b5146103eb578063d004f0f714610409578063dd62ed3e14610439578063f2fde38b14610469578063fa200550146104855761014d565b8063715018a6146102e45780638da5cb5b146102ee57806395d89b411461030c5780639c8f9f231461032a5780639cd441da1461035b578063a457c2d71461038b5761014d565b8063313ce56711610115578063313ce5671461020c578063395093511461022a578063443cb4bc1461025a5780635a76f25e146102785780635f64b55b1461029657806370a08231146102b45761014d565b806306fdde0314610152578063095ea7b3146101705780630fc63d10146101a057806318160ddd146101be57806323b872dd146101dc575b600080fd5b61015a6104a1565b6040516101679190611f95565b60405180910390f35b61018a60048036038101906101859190612050565b610533565b60405161019791906120ab565b60405180910390f35b6101a8610556565b6040516101b59190612125565b60405180910390f35b6101c661057a565b6040516101d3919061214f565b60405180910390f35b6101f660048036038101906101f1919061216a565b610584565b60405161020391906120ab565b60405180910390f35b6102146105b3565b60405161022191906121d9565b60405180910390f35b610244600480360381019061023f9190612050565b6105bc565b60405161025191906120ab565b60405180910390f35b6102626105f3565b60405161026f919061214f565b60405180910390f35b6102806105f9565b60405161028d919061214f565b60405180910390f35b61029e6105ff565b6040516102ab9190612125565b60405180910390f35b6102ce60048036038101906102c991906121f4565b610623565b6040516102db919061214f565b60405180910390f35b6102ec61066b565b005b6102f661067f565b6040516103039190612230565b60405180910390f35b6103146106a9565b6040516103219190611f95565b60405180910390f35b610344600480360381019061033f919061224b565b61073b565b604051610352929190612278565b60405180910390f35b610375600480360381019061037091906122a1565b610a78565b604051610382919061214f565b60405180910390f35b6103a560048036038101906103a09190612050565b610e36565b6040516103b291906120ab565b60405180910390f35b6103d560048036038101906103d09190612050565b610ead565b6040516103e291906120ab565b60405180910390f35b6103f3610ed0565b604051610400919061214f565b60405180910390f35b610423600480360381019061041e9190612050565b610ed6565b604051610430919061214f565b60405180910390f35b610453600480360381019061044e91906122e1565b6113d4565b604051610460919061214f565b60405180910390f35b610483600480360381019061047e91906121f4565b61145b565b005b61049f600480360381019061049a919061224b565b6114df565b005b6060600380546104b090612350565b80601f01602080910402602001604051908101604052809291908181526020018280546104dc90612350565b80156105295780601f106104fe57610100808354040283529160200191610529565b820191906000526020600020905b81548152906001019060200180831161050c57829003601f168201915b5050505050905090565b60008061053e6114f1565b905061054b8185856114f9565b600191505092915050565b7f000000000000000000000000000000000000000000000000000000000000000081565b6000600254905090565b60008061058f6114f1565b905061059c8582856116c4565b6105a7858585611750565b60019150509392505050565b60006012905090565b6000806105c76114f1565b90506105e88185856105d985896113d4565b6105e391906123b1565b6114f9565b600191505092915050565b60065481565b60075481565b7f000000000000000000000000000000000000000000000000000000000000000081565b60008060008373ffffffffffffffffffffffffffffffffffffffff1673ffffffffffffffffffffffffffffffffffffffff168152602001908152602001600020549050919050565b6106736119d1565b61067d6000611a4f565b565b6000600560009054906101000a900473ffffffffffffffffffffffffffffffffffffffff16905090565b6060600480546106b890612350565b80601f01602080910402602001604051908101604052809291908181526020018280546106e490612350565b80156107315780601f1061070657610100808354040283529160200191610731565b820191906000526020600020905b81548152906001019060200180831161071457829003601f168201915b5050505050905090565b60008060007f000000000000000000000000000000000000000000000000000000000000000073ffffffffffffffffffffffffffffffffffffffff166370a08231306040518263ffffffff1660e01b81526004016107999190612230565b602060405180830381865afa1580156107b6573d6000803e3d6000fd5b505050506040513d601f19601f820116820180604052508101906107da919061241c565b905060007f000000000000000000000000000000000000000000000000000000000000000073ffffffffffffffffffffffffffffffffffffffff166370a08231306040518263ffffffff1660e01b81526004016108379190612230565b602060405180830381865afa158015610854573d6000803e3d6000fd5b505050506040513d601f19601f82011682018060405250810190610878919061241c565b905061088261057a565b828661088e9190612449565b61089891906124d2565b93506108a261057a565b81866108ae9190612449565b6108b891906124d2565b92506000841180156108ca5750600083115b610909576040517f08c379a00000000000000000000000000000000000000000000000000000000081526004016109009061254f565b60405180910390fd5b6109133386611b15565b6109338483610922919061256f565b848361092e919061256f565b611cec565b7f000000000000000000000000000000000000000000000000000000000000000073ffffffffffffffffffffffffffffffffffffffff1663a9059cbb33866040518363ffffffff1660e01b815260040161098e9291906125a3565b6020604051808303816000875af11580156109ad573d6000803e3d6000fd5b505050506040513d601f19601f820116820180604052508101906109d191906125f8565b507f000000000000000000000000000000000000000000000000000000000000000073ffffffffffffffffffffffffffffffffffffffff1663a9059cbb33856040518363ffffffff1660e01b8152600401610a2d9291906125a3565b6020604051808303816000875af1158015610a4c573d6000803e3d6000fd5b505050506040513d601f19601f82011682018060405250810190610a7091906125f8565b505050915091565b60007f000000000000000000000000000000000000000000000000000000000000000073ffffffffffffffffffffffffffffffffffffffff166323b872dd3330866040518463ffffffff1660e01b8152600401610ad793929190612625565b6020604051808303816000875af1158015610af6573d6000803e3d6000fd5b505050506040513d601f19601f82011682018060405250810190610b1a91906125f8565b507f000000000000000000000000000000000000000000000000000000000000000073ffffffffffffffffffffffffffffffffffffffff166323b872dd3330856040518463ffffffff1660e01b8152600401610b7893929190612625565b6020604051808303816000875af1158015610b97573d6000803e3d6000fd5b505050506040513d601f19601f82011682018060405250810190610bbb91906125f8565b5060006006541180610bcf57506000600754115b15610c315782600754610be29190612449565b82600654610bf09190612449565b14610c30576040517f08c379a0000000000000000000000000000000000000000000000000000000008152600401610c27906126a8565b60405180910390fd5b5b6000610c3b61057a565b1415610c5c57610c558284610c509190612449565b611cfe565b9050610ca7565b610ca4600654610c6a61057a565b85610c759190612449565b610c7f91906124d2565b600754610c8a61057a565b85610c959190612449565b610c9f91906124d2565b611d78565b90505b60008111610cea576040517f08c379a0000000000000000000000000000000000000000000000000000000008152600401610ce190612714565b60405180910390fd5b610cf43382611d92565b610e307f000000000000000000000000000000000000000000000000000000000000000073ffffffffffffffffffffffffffffffffffffffff166370a08231306040518263ffffffff1660e01b8152600401610d509190612230565b602060405180830381865afa158015610d6d573d6000803e3d6000fd5b505050506040513d601f19601f82011682018060405250810190610d91919061241c565b7f000000000000000000000000000000000000000000000000000000000000000073ffffffffffffffffffffffffffffffffffffffff166370a08231306040518263ffffffff1660e01b8152600401610dea9190612230565b602060405180830381865afa158015610e07573d6000803e3d6000fd5b505050506040513d601f19601f82011682018060405250810190610e2b919061241c565b611cec565b92915050565b600080610e416114f1565b90506000610e4f82866113d4565b905083811015610e94576040517f08c379a0000000000000000000000000000000000000000000000000000000008152600401610e8b906127a6565b60405180910390fd5b610ea182868684036114f9565b60019250505092915050565b600080610eb86114f1565b9050610ec5818585611750565b600191505092915050565b60085481565b60007f000000000000000000000000000000000000000000000000000000000000000073ffffffffffffffffffffffffffffffffffffffff168373ffffffffffffffffffffffffffffffffffffffff161480610f7d57507f000000000000000000000000000000000000000000000000000000000000000073ffffffffffffffffffffffffffffffffffffffff168373ffffffffffffffffffffffffffffffffffffffff16145b610fbc576040517f08c379a0000000000000000000000000000000000000000000000000000000008152600401610fb390612812565b60405180910390fd5b60008211610fff576040517f08c379a0000000000000000000000000000000000000000000000000000000008152600401610ff69061287e565b60405180910390fd5b60007f000000000000000000000000000000000000000000000000000000000000000073ffffffffffffffffffffffffffffffffffffffff168473ffffffffffffffffffffffffffffffffffffffff16149050600080600080846110aa577f00000000000000000000000000000000000000000000000000000000000000007f00000000000000000000000000000000000000000000000000000000000000006007546006546110f3565b7f00000000000000000000000000000000000000000000000000000000000000007f00000000000000000000000000000000000000000000000000000000000000006006546007545b935093509350935060028161110891906124d2565b8710611149576040517f08c379a0000000000000000000000000000000000000000000000000000000008152600401611140906128ea565b60405180910390fd5b8373ffffffffffffffffffffffffffffffffffffffff166323b872dd33308a6040518463ffffffff1660e01b815260040161118693929190612625565b6020604051808303816000875af11580156111a5573d6000803e3d6000fd5b505050506040513d601f19601f820116820180604052508101906111c991906125f8565b5060006103e8600854896111dd9190612449565b6111e791906124d2565b905080836111f591906123b1565b81836112019190612449565b61120b91906124d2565b96508373ffffffffffffffffffffffffffffffffffffffff1663a9059cbb33896040518363ffffffff1660e01b81526004016112489291906125a3565b6020604051808303816000875af1158015611267573d6000803e3d6000fd5b505050506040513d601f19601f8201168201806040525081019061128b91906125f8565b506113c87f000000000000000000000000000000000000000000000000000000000000000073ffffffffffffffffffffffffffffffffffffffff166370a08231306040518263ffffffff1660e01b81526004016112e89190612230565b602060405180830381865afa158015611305573d6000803e3d6000fd5b505050506040513d601f19601f82011682018060405250810190611329919061241c565b7f000000000000000000000000000000000000000000000000000000000000000073ffffffffffffffffffffffffffffffffffffffff166370a08231306040518263ffffffff1660e01b81526004016113829190612230565b602060405180830381865afa15801561139f573d6000803e3d6000fd5b505050506040513d601f19601f820116820180604052508101906113c3919061241c565b611cec565b50505050505092915050565b6000600160008473ffffffffffffffffffffffffffffffffffffffff1673ffffffffffffffffffffffffffffffffffffffff16815260200190815260200160002060008373ffffffffffffffffffffffffffffffffffffffff1673ffffffffffffffffffffffffffffffffffffffff16815260200190815260200160002054905092915050565b6114636119d1565b600073ffffffffffffffffffffffffffffffffffffffff168173ffffffffffffffffffffffffffffffffffffffff1614156114d3576040517f08c379a00000000000000000000000000000000000000000000000000000000081526004016114ca9061297c565b60405180910390fd5b6114dc81611a4f565b50565b6114e76119d1565b8060088190555050565b600033905090565b600073ffffffffffffffffffffffffffffffffffffffff168373ffffffffffffffffffffffffffffffffffffffff161415611569576040517f08c379a000000000000000000000000000000000000000000000000000000000815260040161156090612a0e565b60405180910390fd5b600073ffffffffffffffffffffffffffffffffffffffff168273ffffffffffffffffffffffffffffffffffffffff1614156115d9576040517f08c379a00000000000000000000000000000000000000000000000000000000081526004016115d090612aa0565b60405180910390fd5b80600160008573ffffffffffffffffffffffffffffffffffffffff1673ffffffffffffffffffffffffffffffffffffffff16815260200190815260200160002060008473ffffffffffffffffffffffffffffffffffffffff1673ffffffffffffffffffffffffffffffffffffffff168152602001908152602001600020819055508173ffffffffffffffffffffffffffffffffffffffff168373ffffffffffffffffffffffffffffffffffffffff167f8c5be1e5ebec7d5bd14f71427d1e84f3dd0314c0f7b2291e5b200ac8c7c3b925836040516116b7919061214f565b60405180910390a3505050565b60006116d084846113d4565b90507fffffffffffffffffffffffffffffffffffffffffffffffffffffffffffffffff811461174a578181101561173c576040517f08c379a000000000000000000000000000000000000000000000000000000000815260040161173390612b0c565b60405180910390fd5b61174984848484036114f9565b5b50505050565b600073ffffffffffffffffffffffffffffffffffffffff168373ffffffffffffffffffffffffffffffffffffffff1614156117c0576040517f08c379a00000000000000000000000000000000000000000000000000000000081526004016117b790612b9e565b60405180910390fd5b600073ffffffffffffffffffffffffffffffffffffffff168273ffffffffffffffffffffffffffffffffffffffff161415611830576040517f08c379a000000000000000000000000000000000000000000000000000000000815260040161182790612c30565b60405180910390fd5b61183b838383611ef2565b60008060008573ffffffffffffffffffffffffffffffffffffffff1673ffffffffffffffffffffffffffffffffffffffff168152602001908152602001600020549050818110156118c1576040517f08c379a00000000000000000000000000000000000000000000000000000000081526004016118b890612cc2565b60405180910390fd5b8181036000808673ffffffffffffffffffffffffffffffffffffffff1673ffffffffffffffffffffffffffffffffffffffff16815260200190815260200160002081905550816000808573ffffffffffffffffffffffffffffffffffffffff1673ffffffffffffffffffffffffffffffffffffffff168152602001908152602001600020600082825461195491906123b1565b925050819055508273ffffffffffffffffffffffffffffffffffffffff168473ffffffffffffffffffffffffffffffffffffffff167fddf252ad1be2c89b69c2b068fc378daa952ba7f163c4a11628f55a4df523b3ef846040516119b8919061214f565b60405180910390a36119cb848484611ef7565b50505050565b6119d96114f1565b73ffffffffffffffffffffffffffffffffffffffff166119f761067f565b73ffffffffffffffffffffffffffffffffffffffff1614611a4d576040517f08c379a0000000000000000000000000000000000000000000000000000000008152600401611a4490612d2e565b60405180910390fd5b565b6000600560009054906101000a900473ffffffffffffffffffffffffffffffffffffffff16905081600560006101000a81548173ffffffffffffffffffffffffffffffffffffffff021916908373ffffffffffffffffffffffffffffffffffffffff1602179055508173ffffffffffffffffffffffffffffffffffffffff168173ffffffffffffffffffffffffffffffffffffffff167f8be0079c531659141344cd1fd0a4f28419497f9722a3daafe3b4186f6b6457e060405160405180910390a35050565b600073ffffffffffffffffffffffffffffffffffffffff168273ffffffffffffffffffffffffffffffffffffffff161415611b85576040517f08c379a0000000000000000000000000000000000000000000000000000000008152600401611b7c90612dc0565b60405180910390fd5b611b9182600083611ef2565b60008060008473ffffffffffffffffffffffffffffffffffffffff1673ffffffffffffffffffffffffffffffffffffffff16815260200190815260200160002054905081811015611c17576040517f08c379a0000000000000000000000000000000000000000000000000000000008152600401611c0e90612e52565b60405180910390fd5b8181036000808573ffffffffffffffffffffffffffffffffffffffff1673ffffffffffffffffffffffffffffffffffffffff168152602001908152602001600020819055508160026000828254611c6e919061256f565b92505081905550600073ffffffffffffffffffffffffffffffffffffffff168373ffffffffffffffffffffffffffffffffffffffff167fddf252ad1be2c89b69c2b068fc378daa952ba7f163c4a11628f55a4df523b3ef84604051611cd3919061214f565b60405180910390a3611ce783600084611ef7565b505050565b81600681905550806007819055505050565b60006003821115611d655781905060006001600284611d1d91906124d2565b611d2791906123b1565b90505b81811015611d5f578091506002818285611d4491906124d2565b611d4e91906123b1565b611d5891906124d2565b9050611d2a565b50611d73565b60008214611d7257600190505b5b919050565b600081831115611d885781611d8a565b825b905092915050565b600073ffffffffffffffffffffffffffffffffffffffff168273ffffffffffffffffffffffffffffffffffffffff161415611e02576040517f08c379a0000000000000000000000000000000000000000000000000000000008152600401611df990612ebe565b60405180910390fd5b611e0e60008383611ef2565b8060026000828254611e2091906123b1565b92505081905550806000808473ffffffffffffffffffffffffffffffffffffffff1673ffffffffffffffffffffffffffffffffffffffff1681526020019081526020016000206000828254611e7591906123b1565b925050819055508173ffffffffffffffffffffffffffffffffffffffff16600073ffffffffffffffffffffffffffffffffffffffff167fddf252ad1be2c89b69c2b068fc378daa952ba7f163c4a11628f55a4df523b3ef83604051611eda919061214f565b60405180910390a3611eee60008383611ef7565b5050565b505050565b505050565b600081519050919050565b600082825260208201905092915050565b60005b83811015611f36578082015181840152602081019050611f1b565b83811115611f45576000848401525b50505050565b6000601f19601f8301169050919050565b6000611f6782611efc565b611f718185611f07565b9350611f81818560208601611f18565b611f8a81611f4b565b840191505092915050565b60006020820190508181036000830152611faf8184611f5c565b905092915050565b600080fd5b600073ffffffffffffffffffffffffffffffffffffffff82169050919050565b6000611fe782611fbc565b9050919050565b611ff781611fdc565b811461200257600080fd5b50565b60008135905061201481611fee565b92915050565b6000819050919050565b61202d8161201a565b811461203857600080fd5b50565b60008135905061204a81612024565b92915050565b6000806040838503121561206757612066611fb7565b5b600061207585828601612005565b92505060206120868582860161203b565b9150509250929050565b60008115159050919050565b6120a581612090565b82525050565b60006020820190506120c0600083018461209c565b92915050565b6000819050919050565b60006120eb6120e66120e184611fbc565b6120c6565b611fbc565b9050919050565b60006120fd826120d0565b9050919050565b600061210f826120f2565b9050919050565b61211f81612104565b82525050565b600060208201905061213a6000830184612116565b92915050565b6121498161201a565b82525050565b60006020820190506121646000830184612140565b92915050565b60008060006060848603121561218357612182611fb7565b5b600061219186828701612005565b93505060206121a286828701612005565b92505060406121b38682870161203b565b9150509250925092565b600060ff82169050919050565b6121d3816121bd565b82525050565b60006020820190506121ee60008301846121ca565b92915050565b60006020828403121561220a57612209611fb7565b5b600061221884828501612005565b91505092915050565b61222a81611fdc565b82525050565b60006020820190506122456000830184612221565b92915050565b60006020828403121561226157612260611fb7565b5b600061226f8482850161203b565b91505092915050565b600060408201905061228d6000830185612140565b61229a6020830184612140565b9392505050565b600080604083850312156122b8576122b7611fb7565b5b60006122c68582860161203b565b92505060206122d78582860161203b565b9150509250929050565b600080604083850312156122f8576122f7611fb7565b5b600061230685828601612005565b925050602061231785828601612005565b9150509250929050565b7f4e487b7100000000000000000000000000000000000000000000000000000000600052602260045260246000fd5b6000600282049050600182168061236857607f821691505b6020821081141561237c5761237b612321565b5b50919050565b7f4e487b7100000000000000000000000000000000000000000000000000000000600052601160045260246000fd5b60006123bc8261201a565b91506123c78361201a565b9250827fffffffffffffffffffffffffffffffffffffffffffffffffffffffffffffffff038211156123fc576123fb612382565b5b828201905092915050565b60008151905061241681612024565b92915050565b60006020828403121561243257612431611fb7565b5b600061244084828501612407565b91505092915050565b60006124548261201a565b915061245f8361201a565b9250817fffffffffffffffffffffffffffffffffffffffffffffffffffffffffffffffff048311821515161561249857612497612382565b5b828202905092915050565b7f4e487b7100000000000000000000000000000000000000000000000000000000600052601260045260246000fd5b60006124dd8261201a565b91506124e88361201a565b9250826124f8576124f76124a3565b5b828204905092915050565b7f616d6f756e7430206f7220616d6f756e7431203d203000000000000000000000600082015250565b6000612539601683611f07565b915061254482612503565b602082019050919050565b600060208201905081810360008301526125688161252c565b9050919050565b600061257a8261201a565b91506125858361201a565b92508282101561259857612597612382565b5b828203905092915050565b60006040820190506125b86000830185612221565b6125c56020830184612140565b9392505050565b6125d581612090565b81146125e057600080fd5b50565b6000815190506125f2816125cc565b92915050565b60006020828403121561260e5761260d611fb7565b5b600061261c848285016125e3565b91505092915050565b600060608201905061263a6000830186612221565b6126476020830185612221565b6126546040830184612140565b949350505050565b7f78202f207920213d206478202f20647900000000000000000000000000000000600082015250565b6000612692601083611f07565b915061269d8261265c565b602082019050919050565b600060208201905081810360008301526126c181612685565b9050919050565b7f736861726573203d203000000000000000000000000000000000000000000000600082015250565b60006126fe600a83611f07565b9150612709826126c8565b602082019050919050565b6000602082019050818103600083015261272d816126f1565b9050919050565b7f45524332303a2064656372656173656420616c6c6f77616e63652062656c6f7760008201527f207a65726f000000000000000000000000000000000000000000000000000000602082015250565b6000612790602583611f07565b915061279b82612734565b604082019050919050565b600060208201905081810360008301526127bf81612783565b9050919050565b7f696e76616c696420746f6b656e00000000000000000000000000000000000000600082015250565b60006127fc600d83611f07565b9150612807826127c6565b602082019050919050565b6000602082019050818103600083015261282b816127ef565b9050919050565b7f616d6f756e7420696e203d203000000000000000000000000000000000000000600082015250565b6000612868600d83611f07565b915061287382612832565b602082019050919050565b600060208201905081810360008301526128978161285b565b9050919050565b7f507269636520696d7061637420746f6f20686967680000000000000000000000600082015250565b60006128d4601583611f07565b91506128df8261289e565b602082019050919050565b60006020820190508181036000830152612903816128c7565b9050919050565b7f4f776e61626c653a206e6577206f776e657220697320746865207a65726f206160008201527f6464726573730000000000000000000000000000000000000000000000000000602082015250565b6000612966602683611f07565b91506129718261290a565b604082019050919050565b6000602082019050818103600083015261299581612959565b9050919050565b7f45524332303a20617070726f76652066726f6d20746865207a65726f2061646460008201527f7265737300000000000000000000000000000000000000000000000000000000602082015250565b60006129f8602483611f07565b9150612a038261299c565b604082019050919050565b60006020820190508181036000830152612a27816129eb565b9050919050565b7f45524332303a20617070726f766520746f20746865207a65726f20616464726560008201527f7373000000000000000000000000000000000000000000000000000000000000602082015250565b6000612a8a602283611f07565b9150612a9582612a2e565b604082019050919050565b60006020820190508181036000830152612ab981612a7d565b9050919050565b7f45524332303a20696e73756666696369656e7420616c6c6f77616e6365000000600082015250565b6000612af6601d83611f07565b9150612b0182612ac0565b602082019050919050565b60006020820190508181036000830152612b2581612ae9565b9050919050565b7f45524332303a207472616e736665722066726f6d20746865207a65726f20616460008201527f6472657373000000000000000000000000000000000000000000000000000000602082015250565b6000612b88602583611f07565b9150612b9382612b2c565b604082019050919050565b60006020820190508181036000830152612bb781612b7b565b9050919050565b7f45524332303a207472616e7366657220746f20746865207a65726f206164647260008201527f6573730000000000000000000000000000000000000000000000000000000000602082015250565b6000612c1a602383611f07565b9150612c2582612bbe565b604082019050919050565b60006020820190508181036000830152612c4981612c0d565b9050919050565b7f45524332303a207472616e7366657220616d6f756e742065786365656473206260008201527f616c616e63650000000000000000000000000000000000000000000000000000602082015250565b6000612cac602683611f07565b9150612cb782612c50565b604082019050919050565b60006020820190508181036000830152612cdb81612c9f565b9050919050565b7f4f776e61626c653a2063616c6c6572206973206e6f7420746865206f776e6572600082015250565b6000612d18602083611f07565b9150612d2382612ce2565b602082019050919050565b60006020820190508181036000830152612d4781612d0b565b9050919050565b7f45524332303a206275726e2066726f6d20746865207a65726f2061646472657360008201527f7300000000000000000000000000000000000000000000000000000000000000602082015250565b6000612daa602183611f07565b9150612db582612d4e565b604082019050919050565b60006020820190508181036000830152612dd981612d9d565b9050919050565b7f45524332303a206275726e20616d6f756e7420657863656564732062616c616e60008201527f6365000000000000000000000000000000000000000000000000000000000000602082015250565b6000612e3c602283611f07565b9150612e4782612de0565b604082019050919050565b60006020820190508181036000830152612e6b81612e2f565b9050919050565b7f45524332303a206d696e7420746f20746865207a65726f206164647265737300600082015250565b6000612ea8601f83611f07565b9150612eb382612e72565b602082019050919050565b60006020820190508181036000830152612ed781612e9b565b905091905056fea26469706673582212204aa24e2888df4c620fccc2713b7d4ee8c8c646ce92e9adc9f37ff840fa3d5ce264736f6c634300080c0033",
  "linkReferences": {},
  "deployedLinkReferences": {}
}