{
  "_format": "hh-sol-artifact-1",
  "contractName": "Bets",
  "sourceName": "contracts/Bets.sol",
  "abi": [
    {
      "inputs": [
        {
          "internalType": "address",
          "name": "_betToken",
          "type": "address"
        }
      ],
      "stateMutability": "nonpayable",
      "type": "constructor"
    },
    {
      "anonymous": false,
      "inputs": [
        {
          "indexed": true,
          "internalType": "bytes32",
          "name": "id",
          "type": "bytes32"
        }
      ],
      "name": "ChainlinkCancelled",
      "type": "event"
    },
    {
      "anonymous": false,
      "inputs": [
        {
          "indexed": true,
          "internalType": "bytes32",
          "name": "id",
          "type": "bytes32"
        }
      ],
      "name": "ChainlinkFulfilled",
      "type": "event"
    },
    {
      "anonymous": false,
      "inputs": [
        {
          "indexed": true,
          "internalType": "bytes32",
          "name": "id",
          "type": "bytes32"
        }
      ],
      "name": "ChainlinkRequested",
      "type": "event"
    },
    {
      "anonymous": false,
      "inputs": [
        {
          "indexed": true,
          "internalType": "address",
          "name": "from",
          "type": "address"
        },
        {
          "indexed": true,
          "internalType": "address",
          "name": "to",
          "type": "address"
        }
      ],
      "name": "OwnershipTransferRequested",
      "type": "event"
    },
    {
      "anonymous": false,
      "inputs": [
        {
          "indexed": true,
          "internalType": "address",
          "name": "from",
          "type": "address"
        },
        {
          "indexed": true,
          "internalType": "address",
          "name": "to",
          "type": "address"
        }
      ],
      "name": "OwnershipTransferred",
      "type": "event"
    },
    {
      "anonymous": false,
      "inputs": [
        {
          "indexed": true,
          "internalType": "bytes32",
          "name": "requestId",
          "type": "bytes32"
        },
        {
          "indexed": false,
          "internalType": "uint256",
          "name": "volume",
          "type": "uint256"
        }
      ],
      "name": "RequestVolume",
      "type": "event"
    },
    {
      "inputs": [],
      "name": "acceptOwnership",
      "outputs": [],
      "stateMutability": "nonpayable",
      "type": "function"
    },
    {
      "inputs": [
        {
          "internalType": "uint256",
          "name": "_betId",
          "type": "uint256"
        },
        {
          "internalType": "uint256",
          "name": "_pricePrediction",
          "type": "uint256"
        },
        {
          "internalType": "uint256",
          "name": "_betAmount",
          "type": "uint256"
        }
      ],
      "name": "bet",
      "outputs": [],
      "stateMutability": "payable",
      "type": "function"
    },
    {
      "inputs": [
        {
          "internalType": "uint256",
          "name": "",
          "type": "uint256"
        },
        {
          "internalType": "uint256",
          "name": "",
          "type": "uint256"
        }
      ],
      "name": "betPlayers",
      "outputs": [
        {
          "internalType": "address payable",
          "name": "player",
          "type": "address"
        },
        {
          "internalType": "uint256",
          "name": "pricePrediction",
          "type": "uint256"
        },
        {
          "internalType": "uint256",
          "name": "depositAmount",
          "type": "uint256"
        }
      ],
      "stateMutability": "view",
      "type": "function"
    },
    {
      "inputs": [
        {
          "internalType": "uint256",
          "name": "",
          "type": "uint256"
        }
      ],
      "name": "betRequest",
      "outputs": [
        {
          "internalType": "bytes32",
          "name": "",
          "type": "bytes32"
        }
      ],
      "stateMutability": "view",
      "type": "function"
    },
    {
      "inputs": [],
      "name": "betToken",
      "outputs": [
        {
          "internalType": "contract IERC20",
          "name": "",
          "type": "address"
        }
      ],
      "stateMutability": "view",
      "type": "function"
    },
    {
      "inputs": [
        {
          "internalType": "uint256",
          "name": "",
          "type": "uint256"
        }
      ],
      "name": "bets",
      "outputs": [
        {
          "internalType": "uint256",
          "name": "betAmount",
          "type": "uint256"
        },
        {
          "internalType": "uint256",
          "name": "futurePrice",
          "type": "uint256"
        },
        {
          "internalType": "uint256",
          "name": "time",
          "type": "uint256"
        },
        {
          "internalType": "uint256",
          "name": "lastTimeToParticipate",
          "type": "uint256"
        },
        {
          "internalType": "enum Bets.Status",
          "name": "status",
          "type": "uint8"
        },
        {
          "internalType": "uint256",
          "name": "finalPrice",
          "type": "uint256"
        }
      ],
      "stateMutability": "view",
      "type": "function"
    },
    {
      "inputs": [
        {
          "internalType": "uint256",
          "name": "_time",
          "type": "uint256"
        },
        {
          "internalType": "uint256",
          "name": "_lastTimeToParticipate",
          "type": "uint256"
        },
        {
          "internalType": "uint256",
          "name": "_pricePrediction",
          "type": "uint256"
        },
        {
          "internalType": "uint256",
          "name": "_betAmount",
          "type": "uint256"
        }
      ],
      "name": "createBet",
      "outputs": [],
      "stateMutability": "payable",
      "type": "function"
    },
    {
      "inputs": [
        {
          "internalType": "bytes32",
          "name": "_requestId",
          "type": "bytes32"
        },
        {
          "internalType": "uint256",
          "name": "_volume",
          "type": "uint256"
        }
      ],
      "name": "fulfill",
      "outputs": [],
      "stateMutability": "nonpayable",
      "type": "function"
    },
    {
      "inputs": [
        {
          "internalType": "uint256",
          "name": "timestamp",
          "type": "uint256"
        },
        {
          "internalType": "uint256",
          "name": "_betId",
          "type": "uint256"
        }
      ],
      "name": "getHistoricalPrice",
      "outputs": [
        {
          "internalType": "bytes32",
          "name": "requestId",
          "type": "bytes32"
        }
      ],
      "stateMutability": "nonpayable",
      "type": "function"
    },
    {
      "inputs": [],
      "name": "owner",
      "outputs": [
        {
          "internalType": "address",
          "name": "",
          "type": "address"
        }
      ],
      "stateMutability": "view",
      "type": "function"
    },
    {
      "inputs": [
        {
          "internalType": "bytes32",
          "name": "",
          "type": "bytes32"
        }
      ],
      "name": "requestResponse",
      "outputs": [
        {
          "internalType": "uint256",
          "name": "",
          "type": "uint256"
        }
      ],
      "stateMutability": "view",
      "type": "function"
    },
    {
      "inputs": [
        {
          "internalType": "uint256",
          "name": "_betId",
          "type": "uint256"
        }
      ],
      "name": "rewards",
      "outputs": [],
      "stateMutability": "nonpayable",
      "type": "function"
    },
    {
      "inputs": [
        {
          "internalType": "int256",
          "name": "feed",
          "type": "int256"
        },
        {
          "internalType": "int256[]",
          "name": "arr",
          "type": "int256[]"
        }
      ],
      "name": "testCloset",
      "outputs": [
        {
          "internalType": "int256",
          "name": "",
          "type": "int256"
        }
      ],
      "stateMutability": "pure",
      "type": "function"
    },
    {
      "inputs": [
        {
          "internalType": "uint256",
          "name": "timestamp",
          "type": "uint256"
        }
      ],
      "name": "timestampToDate",
      "outputs": [
        {
          "internalType": "string",
          "name": "",
          "type": "string"
        }
      ],
      "stateMutability": "pure",
      "type": "function"
    },
    {
      "inputs": [
        {
          "internalType": "address",
          "name": "to",
          "type": "address"
        }
      ],
      "name": "transferOwnership",
      "outputs": [],
      "stateMutability": "nonpayable",
      "type": "function"
    },
    {
      "inputs": [],
      "name": "volume",
      "outputs": [
        {
          "internalType": "uint256",
          "name": "",
          "type": "uint256"
        }
      ],
      "stateMutability": "view",
      "type": "function"
    }
  ],
  "bytecode": "0x60a0604052600160045560006008553480156200001b57600080fd5b50604051620047c5380380620047c583398181016040528101906200004191906200043d565b338060008073ffffffffffffffffffffffffffffffffffffffff168273ffffffffffffffffffffffffffffffffffffffff161415620000b7576040517f08c379a0000000000000000000000000000000000000000000000000000000008152600401620000ae90620004d0565b60405180910390fd5b81600660006101000a81548173ffffffffffffffffffffffffffffffffffffffff021916908373ffffffffffffffffffffffffffffffffffffffff160217905550600073ffffffffffffffffffffffffffffffffffffffff168173ffffffffffffffffffffffffffffffffffffffff16146200013f576200013e816200021960201b60201c565b5b5050506200016773326c977e6efc84e512bb9c30f76e30c160ed06fb6200034b60201b60201c565b6200018c7340193c8518bb267228fc409a613bdbd8ec5a97b36200038f60201b60201c565b8073ffffffffffffffffffffffffffffffffffffffff1660808173ffffffffffffffffffffffffffffffffffffffff16815250507f6361393833363663633733313439353762386330313263373266303561656562600a81905550600a670de0b6b3a764000060016200020091906200052b565b6200020c9190620005bb565b600b819055505062000665565b3373ffffffffffffffffffffffffffffffffffffffff168173ffffffffffffffffffffffffffffffffffffffff1614156200028b576040517f08c379a0000000000000000000000000000000000000000000000000000000008152600401620002829062000643565b60405180910390fd5b80600760006101000a81548173ffffffffffffffffffffffffffffffffffffffff021916908373ffffffffffffffffffffffffffffffffffffffff1602179055508073ffffffffffffffffffffffffffffffffffffffff16600660009054906101000a900473ffffffffffffffffffffffffffffffffffffffff1673ffffffffffffffffffffffffffffffffffffffff167fed8889f560326eb138920d842192f0eb3dd22b4f139c87a2c57538e05bae127860405160405180910390a350565b80600260006101000a81548173ffffffffffffffffffffffffffffffffffffffff021916908373ffffffffffffffffffffffffffffffffffffffff16021790555050565b80600360006101000a81548173ffffffffffffffffffffffffffffffffffffffff021916908373ffffffffffffffffffffffffffffffffffffffff16021790555050565b600080fd5b600073ffffffffffffffffffffffffffffffffffffffff82169050919050565b60006200040582620003d8565b9050919050565b6200041781620003f8565b81146200042357600080fd5b50565b60008151905062000437816200040c565b92915050565b600060208284031215620004565762000455620003d3565b5b6000620004668482850162000426565b91505092915050565b600082825260208201905092915050565b7f43616e6e6f7420736574206f776e657220746f207a65726f0000000000000000600082015250565b6000620004b86018836200046f565b9150620004c58262000480565b602082019050919050565b60006020820190508181036000830152620004eb81620004a9565b9050919050565b6000819050919050565b7f4e487b7100000000000000000000000000000000000000000000000000000000600052601160045260246000fd5b60006200053882620004f2565b91506200054583620004f2565b9250817fffffffffffffffffffffffffffffffffffffffffffffffffffffffffffffffff0483118215151615620005815762000580620004fc565b5b828202905092915050565b7f4e487b7100000000000000000000000000000000000000000000000000000000600052601260045260246000fd5b6000620005c882620004f2565b9150620005d583620004f2565b925082620005e857620005e76200058c565b5b828204905092915050565b7f43616e6e6f74207472616e7366657220746f2073656c66000000000000000000600082015250565b60006200062b6017836200046f565b91506200063882620005f3565b602082019050919050565b600060208201905081810360008301526200065e816200061c565b9050919050565b60805161412f62000696600039600081816105d2015281816109df01528181610c1b01526114f6015261412f6000f3fe6080604052600436106100f35760003560e01c8063b2178afc1161008a578063c618a1e411610059578063c618a1e41461033b578063de5101af14610366578063f2fde38b146103a3578063f301af42146103cc576100f3565b8063b2178afc14610287578063bfc54822146102a3578063c1cbd1b0146102bf578063c479ffd1146102fe576100f3565b806378691f16116100c657806378691f16146101dd57806379ba5097146102085780638da5cb5b1461021f578063acf3e74d1461024a576100f3565b8063199ea90d146100f857806322af00fa146101355780633d85b432146101775780634357855e146101b4575b600080fd5b34801561010457600080fd5b5061011f600480360381019061011a919061293c565b6103f5565b60405161012c91906129a7565b60405180910390f35b34801561014157600080fd5b5061015c600480360381019061015791906129f8565b61040e565b60405161016e96959493929190612aab565b60405180910390f35b34801561018357600080fd5b5061019e600480360381019061019991906129f8565b610457565b6040516101ab9190612b25565b60405180910390f35b3480156101c057600080fd5b506101db60048036038101906101d69190612b6c565b61046f565b005b3480156101e957600080fd5b506101f26105d0565b6040516101ff9190612c2b565b60405180910390f35b34801561021457600080fd5b5061021d6105f4565b005b34801561022b57600080fd5b5061023461078b565b6040516102419190612c67565b60405180910390f35b34801561025657600080fd5b50610271600480360381019061026c9190612c82565b6107b5565b60405161027e9190612b25565b60405180910390f35b6102a1600480360381019061029c9190612cc2565b61098e565b005b6102bd60048036038101906102b89190612d29565b610c19565b005b3480156102cb57600080fd5b506102e660048036038101906102e19190612c82565b611113565b6040516102f593929190612d9d565b60405180910390f35b34801561030a57600080fd5b5061032560048036038101906103209190612dd4565b61117a565b6040516103329190612e01565b60405180910390f35b34801561034757600080fd5b50610350611192565b60405161035d9190612e01565b60405180910390f35b34801561037257600080fd5b5061038d600480360381019061038891906129f8565b611198565b60405161039a9190612ea4565b60405180910390f35b3480156103af57600080fd5b506103ca60048036038101906103c59190612ef2565b611238565b005b3480156103d857600080fd5b506103f360048036038101906103ee91906129f8565b61124c565b005b6000806104028484611661565b90508091505092915050565b600c6020528060005260406000206000915090508060000154908060010154908060020154908060030154908060040160009054906101000a900460ff16908060050154905086565b600e6020528060005260406000206000915090505481565b816005600082815260200190815260200160002060009054906101000a900473ffffffffffffffffffffffffffffffffffffffff1673ffffffffffffffffffffffffffffffffffffffff163373ffffffffffffffffffffffffffffffffffffffff1614610511576040517f08c379a000000000000000000000000000000000000000000000000000000000815260040161050890612f91565b60405180910390fd5b6005600082815260200190815260200160002060006101000a81549073ffffffffffffffffffffffffffffffffffffffff0219169055807f7cc135e0cebb02c3480ae5d74d377283180a2601f8f644edf7987b009316c63a60405160405180910390a2827f673b38182859a514d734bdfcb49d3a05c4a641dec9311d9894c9717bcb79af76836040516105a49190612e01565b60405180910390a281600f60008581526020019081526020016000208190555081600981905550505050565b7f000000000000000000000000000000000000000000000000000000000000000081565b600760009054906101000a900473ffffffffffffffffffffffffffffffffffffffff1673ffffffffffffffffffffffffffffffffffffffff163373ffffffffffffffffffffffffffffffffffffffff1614610684576040517f08c379a000000000000000000000000000000000000000000000000000000000815260040161067b90612ffd565b60405180910390fd5b6000600660009054906101000a900473ffffffffffffffffffffffffffffffffffffffff16905033600660006101000a81548173ffffffffffffffffffffffffffffffffffffffff021916908373ffffffffffffffffffffffffffffffffffffffff1602179055506000600760006101000a81548173ffffffffffffffffffffffffffffffffffffffff021916908373ffffffffffffffffffffffffffffffffffffffff1602179055503373ffffffffffffffffffffffffffffffffffffffff168173ffffffffffffffffffffffffffffffffffffffff167f8be0079c531659141344cd1fd0a4f28419497f9722a3daafe3b4186f6b6457e060405160405180910390a350565b6000600660009054906101000a900473ffffffffffffffffffffffffffffffffffffffff16905090565b6000806107cc600a5430634357855e60e01b611721565b905060006107d985611198565b90506000816040516020016107ee91906130cb565b604051602081830303815290604052905061083e6040518060400160405280600781526020017f55726c203d3e200000000000000000000000000000000000000000000000000081525082611752565b6108886040518060400160405280600381526020017f676574000000000000000000000000000000000000000000000000000000000081525082856117ee9092919063ffffffff16565b6109076040518060400160405280600481526020017f70617468000000000000000000000000000000000000000000000000000000008152506040518060400160405280601d81526020017f6d61726b65745f646174612c63757272656e745f70726963652c757364000000815250856117ee9092919063ffffffff16565b6000670de0b6b3a7640000905061095e6040518060400160405280600581526020017f74696d657300000000000000000000000000000000000000000000000000000081525082866118219092919063ffffffff16565b61096a84600b54611854565b945084600e6000888152602001908152602001600020819055505050505092915050565b60008111801561099e5750600082115b6109dd576040517f08c379a00000000000000000000000000000000000000000000000000000000081526004016109d49061315f565b60405180910390fd5b7f000000000000000000000000000000000000000000000000000000000000000073ffffffffffffffffffffffffffffffffffffffff166323b872dd3330846040518463ffffffff1660e01b8152600401610a3a9392919061317f565b6020604051808303816000875af1158015610a59573d6000803e3d6000fd5b505050506040513d601f19601f82011682018060405250810190610a7d91906131ee565b5060006040518060c0016040528083815260200184815260200186815260200185815260200160006002811115610ab757610ab6612a34565b5b81526020016000815250905080600c600060085481526020019081526020016000206000820151816000015560208201518160010155604082015181600201556060820151816003015560808201518160040160006101000a81548160ff02191690836002811115610b2c57610b2b612a34565b5b021790555060a08201518160050155905050600d6000600854815260200190815260200160002060405180606001604052803373ffffffffffffffffffffffffffffffffffffffff16815260200185815260200134815250908060018154018082558091505060019003906000526020600020906003020160009091909190915060008201518160000160006101000a81548173ffffffffffffffffffffffffffffffffffffffff021916908373ffffffffffffffffffffffffffffffffffffffff16021790555060208201518160010155604082015181600201555050610c1261188b565b5050505050565b7f000000000000000000000000000000000000000000000000000000000000000073ffffffffffffffffffffffffffffffffffffffff166323b872dd3330846040518463ffffffff1660e01b8152600401610c769392919061317f565b6020604051808303816000875af1158015610c95573d6000803e3d6000fd5b505050506040513d601f19601f82011682018060405250810190610cb991906131ee565b5060006002811115610cce57610ccd612a34565b5b600c600085815260200190815260200160002060040160009054906101000a900460ff166002811115610d0457610d03612a34565b5b1480610d57575060016002811115610d1f57610d1e612a34565b5b600c600085815260200190815260200160002060040160009054906101000a900460ff166002811115610d5557610d54612a34565b5b145b610d96576040517f08c379a0000000000000000000000000000000000000000000000000000000008152600401610d8d90613267565b60405180910390fd5b826008541015610ddb576040517f08c379a0000000000000000000000000000000000000000000000000000000008152600401610dd2906132d3565b60405180910390fd5b600c6000848152602001908152602001600020600301544210610e33576040517f08c379a0000000000000000000000000000000000000000000000000000000008152600401610e2a90613365565b60405180910390fd5b600c600084815260200190815260200160002060000154811015610e8c576040517f08c379a0000000000000000000000000000000000000000000000000000000008152600401610e83906133f7565b60405180910390fd5b60005b600d600085815260200190815260200160002080549050811015610ffe573373ffffffffffffffffffffffffffffffffffffffff16600d60008681526020019081526020016000208281548110610ee957610ee8613417565b5b906000526020600020906003020160000160009054906101000a900473ffffffffffffffffffffffffffffffffffffffff1673ffffffffffffffffffffffffffffffffffffffff161415610f72576040517f08c379a0000000000000000000000000000000000000000000000000000000008152600401610f6990613492565b60405180910390fd5b82600d60008681526020019081526020016000208281548110610f9857610f97613417565b5b9060005260206000209060030201600101541415610feb576040517f08c379a0000000000000000000000000000000000000000000000000000000008152600401610fe2906134fe565b60405180910390fd5b8080610ff69061354d565b915050610e8f565b50600d600084815260200190815260200160002060405180606001604052803373ffffffffffffffffffffffffffffffffffffffff16815260200184815260200134815250908060018154018082558091505060019003906000526020600020906003020160009091909190915060008201518160000160006101000a81548173ffffffffffffffffffffffffffffffffffffffff021916908373ffffffffffffffffffffffffffffffffffffffff160217905550602082015181600101556040820151816002015550506000600c6000858152602001908152602001600020905060018160040160006101000a81548160ff0219169083600281111561110857611107612a34565b5b021790555050505050565b600d602052816000526040600020818154811061112f57600080fd5b9060005260206000209060030201600091509150508060000160009054906101000a900473ffffffffffffffffffffffffffffffffffffffff16908060010154908060020154905083565b600f6020528060005260406000206000915090505481565b60095481565b606060008060006111a8856118a5565b9250925092506060600983116111e7576111c1836118d4565b6040516020016111d191906135bc565b60405160208183030381529060405290506111f3565b6111f0836118d4565b90505b60006111fe836118d4565b82611208876118d4565b60405160200161121a93929190613608565b60405160208183030381529060405290508095505050505050919050565b611240611a35565b61124981611ac7565b50565b600c6000828152602001908152602001600020600201544210156112a5576040517f08c379a000000000000000000000000000000000000000000000000000000000815260040161129c906136a3565b60405180910390fd5b8060085410156112ea576040517f08c379a00000000000000000000000000000000000000000000000000000000081526004016112e1906132d3565b60405180910390fd5b600160028111156112fe576112fd612a34565b5b600c600083815260200190815260200160002060040160009054906101000a900460ff16600281111561133457611333612a34565b5b14611374576040517f08c379a000000000000000000000000000000000000000000000000000000000815260040161136b9061370f565b60405180910390fd5b600080600d6000848152602001908152602001600020805490509050606060005b8281101561144a57600d600086815260200190815260200160002081815481106113c2576113c1613417565b5b906000526020600020906003020160020154846113df919061372f565b9350600d6000868152602001908152602001600020818154811061140657611405613417565b5b90600052602060002090600302016001015482828151811061142b5761142a613417565b5b60200260200101818152505080806114429061354d565b915050611395565b50600061146d600c600087815260200190815260200160002060020154866107b5565b90506000600f600083815260200190815260200160002054905060006114938285611661565b905060005b600d6000898152602001908152602001600020805490508110156116085781600d60008a815260200190815260200160002082815481106114dc576114db613417565b5b90600052602060002090600302016001015414156115f5577f000000000000000000000000000000000000000000000000000000000000000073ffffffffffffffffffffffffffffffffffffffff1663a9059cbb600d60008b8152602001908152602001600020838154811061155557611554613417565b5b906000526020600020906003020160000160009054906101000a900473ffffffffffffffffffffffffffffffffffffffff16896040518363ffffffff1660e01b81526004016115a59291906137a6565b6020604051808303816000875af11580156115c4573d6000803e3d6000fd5b505050506040513d601f19601f820116820180604052508101906115e891906131ee565b505050505050505061165e565b80806116009061354d565b915050611498565b506000600c6000898152602001908152602001600020905060028160040160006101000a81548160ff0219169083600281111561164857611647612a34565b5b0217905550828160050181905550505050505050505b50565b6000808260008151811061167857611677613417565b5b602002602001015190506000611698828661169391906137cf565b611bf6565b905060005b84518110156117155760006116d68683815181106116be576116bd613417565b5b6020026020010151886116d191906137cf565b611bf6565b905082811215611701578092508582815181106116f6576116f5613417565b5b602002602001015193505b50808061170d9061354d565b91505061169d565b50819250505092915050565b611729612712565b611731612712565b61174885858584611c18909392919063ffffffff16565b9150509392505050565b6117ea8282604051602401611768929190613863565b6040516020818303038152906040527f4b5c4277000000000000000000000000000000000000000000000000000000007bffffffffffffffffffffffffffffffffffffffffffffffffffffffff19166020820180517bffffffffffffffffffffffffffffffffffffffffffffffffffffffff8381831617835250505050611cc8565b5050565b611805828460800151611cf190919063ffffffff16565b61181c818460800151611cf190919063ffffffff16565b505050565b611838828460800151611cf190919063ffffffff16565b61184f818460800151611d1690919063ffffffff16565b505050565b6000611883600360009054906101000a900473ffffffffffffffffffffffffffffffffffffffff168484611dc3565b905092915050565b6008600081548092919061189e9061354d565b9190505550565b60008060006118c162015180856118bc91906138c9565b611e8f565b8093508194508295505050509193909250565b6060600082141561191c576040518060400160405280600181526020017f30000000000000000000000000000000000000000000000000000000000000008152509050611a30565b600082905060005b6000821461194e5780806119379061354d565b915050600a8261194791906138c9565b9150611924565b60008167ffffffffffffffff81111561196a576119696127f9565b5b6040519080825280601f01601f19166020018201604052801561199c5781602001600182028036833780820191505090505b5090505b60008514611a29576001826119b591906138fa565b9150600a856119c4919061392e565b60306119d0919061372f565b60f81b8183815181106119e6576119e5613417565b5b60200101907effffffffffffffffffffffffffffffffffffffffffffffffffffffffffffff1916908160001a905350600a85611a2291906138c9565b94506119a0565b8093505050505b919050565b600660009054906101000a900473ffffffffffffffffffffffffffffffffffffffff1673ffffffffffffffffffffffffffffffffffffffff163373ffffffffffffffffffffffffffffffffffffffff1614611ac5576040517f08c379a0000000000000000000000000000000000000000000000000000000008152600401611abc906139ab565b60405180910390fd5b565b3373ffffffffffffffffffffffffffffffffffffffff168173ffffffffffffffffffffffffffffffffffffffff161415611b36576040517f08c379a0000000000000000000000000000000000000000000000000000000008152600401611b2d90613a17565b60405180910390fd5b80600760006101000a81548173ffffffffffffffffffffffffffffffffffffffff021916908373ffffffffffffffffffffffffffffffffffffffff1602179055508073ffffffffffffffffffffffffffffffffffffffff16600660009054906101000a900473ffffffffffffffffffffffffffffffffffffffff1673ffffffffffffffffffffffffffffffffffffffff167fed8889f560326eb138920d842192f0eb3dd22b4f139c87a2c57538e05bae127860405160405180910390a350565b600080821215611c0f5781611c0a90613a37565b611c11565b815b9050919050565b611c20612712565b611c30856080015161010061202e565b508385600001818152505082856020019073ffffffffffffffffffffffffffffffffffffffff16908173ffffffffffffffffffffffffffffffffffffffff16815250508185604001907bffffffffffffffffffffffffffffffffffffffffffffffffffffffff191690817bffffffffffffffffffffffffffffffffffffffffffffffffffffffff191681525050849050949350505050565b60008151905060006a636f6e736f6c652e6c6f679050602083016000808483855afa5050505050565b611cfe8260038351612098565b611d11818361221d90919063ffffffff16565b505050565b7fffffffffffffffffffffffffffffffffffffffffffffffff0000000000000000811215611d4d57611d48828261223f565b611dbf565b67ffffffffffffffff811315611d6c57611d6782826122b6565b611dbe565b60008112611d8557611d8082600083612098565b611dbd565b611dbc826001837fffffffffffffffffffffffffffffffffffffffffffffffffffffffffffffffff611db791906137cf565b612098565b5b5b5b5050565b6000806004549050600181611dd8919061372f565b6004819055506000634042994660e01b60008087600001513089604001518760018c6080015160000151604051602401611e19989796959493929190613b10565b604051602081830303815290604052907bffffffffffffffffffffffffffffffffffffffffffffffffffffffff19166020820180517bffffffffffffffffffffffffffffffffffffffffffffffffffffffff83818316178352505050509050611e8486838684612302565b925050509392505050565b600080600080849050600062253d8c62010bd983611ead9190613b95565b611eb79190613b95565b9050600062023ab1826004611ecc9190613c29565b611ed69190613d40565b9050600460038262023ab1611eeb9190613c29565b611ef59190613b95565b611eff9190613d40565b82611f0a91906137cf565b9150600062164b09600184611f1f9190613b95565b610fa0611f2c9190613c29565b611f369190613d40565b9050601f6004826105b5611f4a9190613c29565b611f549190613d40565b84611f5f91906137cf565b611f699190613b95565b9250600061098f846050611f7d9190613c29565b611f879190613d40565b9050600060508261098f611f9b9190613c29565b611fa59190613d40565b85611fb091906137cf565b9050600b82611fbf9190613d40565b945084600c611fce9190613c29565b600283611fdb9190613b95565b611fe591906137cf565b91508483603186611ff691906137cf565b60646120029190613c29565b61200c9190613b95565b6120169190613b95565b92508298508197508096505050505050509193909250565b61203661277f565b6000602083612045919061392e565b1461207157602082612057919061392e565b602061206391906138fa565b8261206e919061372f565b91505b81836020018181525050604051808452600081528281016020016040525082905092915050565b60178167ffffffffffffffff16116120cf576120c98160058460ff16901b60ff16178461249790919063ffffffff16565b50612218565b60ff8167ffffffffffffffff1611612125576120fe601860058460ff16901b178461249790919063ffffffff16565b5061211f8167ffffffffffffffff166001856124b79092919063ffffffff16565b50612217565b61ffff8167ffffffffffffffff161161217c57612155601960058460ff16901b178461249790919063ffffffff16565b506121768167ffffffffffffffff166002856124b79092919063ffffffff16565b50612216565b63ffffffff8167ffffffffffffffff16116121d5576121ae601a60058460ff16901b178461249790919063ffffffff16565b506121cf8167ffffffffffffffff166004856124b79092919063ffffffff16565b50612215565b6121f2601b60058460ff16901b178461249790919063ffffffff16565b506122138167ffffffffffffffff166008856124b79092919063ffffffff16565b505b5b5b5b505050565b61222561277f565b612237838460000151518485516124d9565b905092915050565b61225d60036005600660ff16901b178361249790919063ffffffff16565b506122b282827fffffffffffffffffffffffffffffffffffffffffffffffffffffffffffffffff61228e91906137cf565b60405160200161229e9190612e01565b6040516020818303038152906040526125c8565b5050565b6122d460026005600660ff16901b178361249790919063ffffffff16565b506122fe82826040516020016122ea9190612e01565b6040516020818303038152906040526125c8565b5050565b60003084604051602001612317929190613e25565b604051602081830303815290604052805190602001209050846005600083815260200190815260200160002060006101000a81548173ffffffffffffffffffffffffffffffffffffffff021916908373ffffffffffffffffffffffffffffffffffffffff160217905550807fb5e6e01e79f91267dc17b4e6314d5d4d03593d2ceee0fbb452b750bd70ea5af960405160405180910390a2600260009054906101000a900473ffffffffffffffffffffffffffffffffffffffff1673ffffffffffffffffffffffffffffffffffffffff16634000aea08685856040518463ffffffff1660e01b815260040161240d93929190613e51565b6020604051808303816000875af115801561242c573d6000803e3d6000fd5b505050506040513d601f19601f8201168201806040525081019061245091906131ee565b61248f576040517f08c379a000000000000000000000000000000000000000000000000000000000815260040161248690613f01565b60405180910390fd5b949350505050565b61249f61277f565b6124af83846000015151846125ed565b905092915050565b6124bf61277f565b6124d0848560000151518585612644565b90509392505050565b6124e161277f565b82518211156124ef57600080fd5b84602001518285612500919061372f565b11156125355761253485600261252588602001518887612520919061372f565b6126d2565b61252f9190613f21565b6126ee565b5b6000808651805187602083010193508088870111156125545787860182525b60208701925050505b6020841061259b5780518252602082612576919061372f565b9150602081612585919061372f565b905060208461259491906138fa565b935061255d565b60006001856020036101000a03905080198251168184511681811785525050508692505050949350505050565b6125d58260028351612098565b6125e8818361221d90919063ffffffff16565b505050565b6125f561277f565b8360200151831061261b5761261a84600286602001516126159190613f21565b6126ee565b5b8351805160208583010184815381861415612637576001820183525b5050508390509392505050565b61264c61277f565b8460200151848361265d919061372f565b1115612685576126848560028685612675919061372f565b61267f9190613f21565b6126ee565b5b600060018361010061269791906140ae565b6126a191906138fa565b905085518386820101858319825116178152815185880111156126c45784870182525b505085915050949350505050565b6000818311156126e4578290506126e8565b8190505b92915050565b600082600001519050612701838361202e565b5061270c838261221d565b50505050565b6040518060a0016040528060008019168152602001600073ffffffffffffffffffffffffffffffffffffffff16815260200160007bffffffffffffffffffffffffffffffffffffffffffffffffffffffff191681526020016000815260200161277961277f565b81525090565b604051806040016040528060608152602001600081525090565b6000604051905090565b600080fd5b600080fd5b6000819050919050565b6127c0816127ad565b81146127cb57600080fd5b50565b6000813590506127dd816127b7565b92915050565b600080fd5b6000601f19601f8301169050919050565b7f4e487b7100000000000000000000000000000000000000000000000000000000600052604160045260246000fd5b612831826127e8565b810181811067ffffffffffffffff821117156128505761284f6127f9565b5b80604052505050565b6000612863612799565b905061286f8282612828565b919050565b600067ffffffffffffffff82111561288f5761288e6127f9565b5b602082029050602081019050919050565b600080fd5b60006128b86128b384612874565b612859565b905080838252602082019050602084028301858111156128db576128da6128a0565b5b835b8181101561290457806128f088826127ce565b8452602084019350506020810190506128dd565b5050509392505050565b600082601f830112612923576129226127e3565b5b81356129338482602086016128a5565b91505092915050565b60008060408385031215612953576129526127a3565b5b6000612961858286016127ce565b925050602083013567ffffffffffffffff811115612982576129816127a8565b5b61298e8582860161290e565b9150509250929050565b6129a1816127ad565b82525050565b60006020820190506129bc6000830184612998565b92915050565b6000819050919050565b6129d5816129c2565b81146129e057600080fd5b50565b6000813590506129f2816129cc565b92915050565b600060208284031215612a0e57612a0d6127a3565b5b6000612a1c848285016129e3565b91505092915050565b612a2e816129c2565b82525050565b7f4e487b7100000000000000000000000000000000000000000000000000000000600052602160045260246000fd5b60038110612a7457612a73612a34565b5b50565b6000819050612a8582612a63565b919050565b6000612a9582612a77565b9050919050565b612aa581612a8a565b82525050565b600060c082019050612ac06000830189612a25565b612acd6020830188612a25565b612ada6040830187612a25565b612ae76060830186612a25565b612af46080830185612a9c565b612b0160a0830184612a25565b979650505050505050565b6000819050919050565b612b1f81612b0c565b82525050565b6000602082019050612b3a6000830184612b16565b92915050565b612b4981612b0c565b8114612b5457600080fd5b50565b600081359050612b6681612b40565b92915050565b60008060408385031215612b8357612b826127a3565b5b6000612b9185828601612b57565b9250506020612ba2858286016129e3565b9150509250929050565b600073ffffffffffffffffffffffffffffffffffffffff82169050919050565b6000819050919050565b6000612bf1612bec612be784612bac565b612bcc565b612bac565b9050919050565b6000612c0382612bd6565b9050919050565b6000612c1582612bf8565b9050919050565b612c2581612c0a565b82525050565b6000602082019050612c406000830184612c1c565b92915050565b6000612c5182612bac565b9050919050565b612c6181612c46565b82525050565b6000602082019050612c7c6000830184612c58565b92915050565b60008060408385031215612c9957612c986127a3565b5b6000612ca7858286016129e3565b9250506020612cb8858286016129e3565b9150509250929050565b60008060008060808587031215612cdc57612cdb6127a3565b5b6000612cea878288016129e3565b9450506020612cfb878288016129e3565b9350506040612d0c878288016129e3565b9250506060612d1d878288016129e3565b91505092959194509250565b600080600060608486031215612d4257612d416127a3565b5b6000612d50868287016129e3565b9350506020612d61868287016129e3565b9250506040612d72868287016129e3565b9150509250925092565b6000612d8782612bac565b9050919050565b612d9781612d7c565b82525050565b6000606082019050612db26000830186612d8e565b612dbf6020830185612a25565b612dcc6040830184612a25565b949350505050565b600060208284031215612dea57612de96127a3565b5b6000612df884828501612b57565b91505092915050565b6000602082019050612e166000830184612a25565b92915050565b600081519050919050565b600082825260208201905092915050565b60005b83811015612e56578082015181840152602081019050612e3b565b83811115612e65576000848401525b50505050565b6000612e7682612e1c565b612e808185612e27565b9350612e90818560208601612e38565b612e99816127e8565b840191505092915050565b60006020820190508181036000830152612ebe8184612e6b565b905092915050565b612ecf81612c46565b8114612eda57600080fd5b50565b600081359050612eec81612ec6565b92915050565b600060208284031215612f0857612f076127a3565b5b6000612f1684828501612edd565b91505092915050565b7f536f75726365206d75737420626520746865206f7261636c65206f662074686560008201527f2072657175657374000000000000000000000000000000000000000000000000602082015250565b6000612f7b602883612e27565b9150612f8682612f1f565b604082019050919050565b60006020820190508181036000830152612faa81612f6e565b9050919050565b7f4d7573742062652070726f706f736564206f776e657200000000000000000000600082015250565b6000612fe7601683612e27565b9150612ff282612fb1565b602082019050919050565b6000602082019050818103600083015261301681612fda565b9050919050565b600081905092915050565b7f68747470733a2f2f6170692e636f696e6765636b6f2e636f6d2f6170692f763360008201527f2f636f696e732f657468657265756d2f686973746f72793f646174653d000000602082015250565b6000613084603d8361301d565b915061308f82613028565b603d82019050919050565b60006130a582612e1c565b6130af818561301d565b93506130bf818560208601612e38565b80840191505092915050565b60006130d682613077565b91506130e2828461309a565b915081905092915050565b7f596f75206d7573742073656e6420736f6d652045544820616e6420707265646960008201527f6374207072696365000000000000000000000000000000000000000000000000602082015250565b6000613149602883612e27565b9150613154826130ed565b604082019050919050565b600060208201905081810360008301526131788161313c565b9050919050565b60006060820190506131946000830186612c58565b6131a16020830185612c58565b6131ae6040830184612a25565b949350505050565b60008115159050919050565b6131cb816131b6565b81146131d657600080fd5b50565b6000815190506131e8816131c2565b92915050565b600060208284031215613204576132036127a3565b5b6000613212848285016131d9565b91505092915050565b7f4245545f4e4f545f535441525445440000000000000000000000000000000000600082015250565b6000613251600f83612e27565b915061325c8261321b565b602082019050919050565b6000602082019050818103600083015261328081613244565b9050919050565b7f4245545f4e4f545f455849535400000000000000000000000000000000000000600082015250565b60006132bd600d83612e27565b91506132c882613287565b602082019050919050565b600060208201905081810360008301526132ec816132b0565b9050919050565b7f596f752063616e206e6f742070617274696369706174652c2074696d6520697360008201527f2064756500000000000000000000000000000000000000000000000000000000602082015250565b600061334f602483612e27565b915061335a826132f3565b604082019050919050565b6000602082019050818103600083015261337e81613342565b9050919050565b7f596f75206d75737420626574207468652073616d65206f72206d6f726520616d60008201527f6f756e7400000000000000000000000000000000000000000000000000000000602082015250565b60006133e1602483612e27565b91506133ec82613385565b604082019050919050565b60006020820190508181036000830152613410816133d4565b9050919050565b7f4e487b7100000000000000000000000000000000000000000000000000000000600052603260045260246000fd5b7f596f7520616c7265616479206a6f696e65642074686973206265740000000000600082015250565b600061347c601b83612e27565b915061348782613446565b602082019050919050565b600060208201905081810360008301526134ab8161346f565b9050919050565b7f596f752063616e277420626574206f6e207468652073616d6520707269636500600082015250565b60006134e8601f83612e27565b91506134f3826134b2565b602082019050919050565b60006020820190508181036000830152613517816134db565b9050919050565b7f4e487b7100000000000000000000000000000000000000000000000000000000600052601160045260246000fd5b6000613558826129c2565b91507fffffffffffffffffffffffffffffffffffffffffffffffffffffffffffffffff82141561358b5761358a61351e565b5b600182019050919050565b7f3000000000000000000000000000000000000000000000000000000000000000815250565b60006135c782613596565b6001820191506135d7828461309a565b915081905092915050565b7f2d00000000000000000000000000000000000000000000000000000000000000815250565b6000613614828661309a565b915061361f826135e2565b60018201915061362f828561309a565b915061363a826135e2565b60018201915061364a828461309a565b9150819050949350505050565b7f54696d65206973206e6f74206475652079657400000000000000000000000000600082015250565b600061368d601383612e27565b915061369882613657565b602082019050919050565b600060208201905081810360008301526136bc81613680565b9050919050565b7f4245545f414c52454144595f46494e4953480000000000000000000000000000600082015250565b60006136f9601283612e27565b9150613704826136c3565b602082019050919050565b60006020820190508181036000830152613728816136ec565b9050919050565b600061373a826129c2565b9150613745836129c2565b9250827fffffffffffffffffffffffffffffffffffffffffffffffffffffffffffffffff0382111561377a5761377961351e565b5b828201905092915050565b600061379082612bf8565b9050919050565b6137a081613785565b82525050565b60006040820190506137bb6000830185613797565b6137c86020830184612a25565b9392505050565b60006137da826127ad565b91506137e5836127ad565b9250827f8000000000000000000000000000000000000000000000000000000000000000018212600084121516156138205761381f61351e565b5b827f7fffffffffffffffffffffffffffffffffffffffffffffffffffffffffffffff0182136000841216156138585761385761351e565b5b828203905092915050565b6000604082019050818103600083015261387d8185612e6b565b905081810360208301526138918184612e6b565b90509392505050565b7f4e487b7100000000000000000000000000000000000000000000000000000000600052601260045260246000fd5b60006138d4826129c2565b91506138df836129c2565b9250826138ef576138ee61389a565b5b828204905092915050565b6000613905826129c2565b9150613910836129c2565b9250828210156139235761392261351e565b5b828203905092915050565b6000613939826129c2565b9150613944836129c2565b9250826139545761395361389a565b5b828206905092915050565b7f4f6e6c792063616c6c61626c65206279206f776e657200000000000000000000600082015250565b6000613995601683612e27565b91506139a08261395f565b602082019050919050565b600060208201905081810360008301526139c481613988565b9050919050565b7f43616e6e6f74207472616e7366657220746f2073656c66000000000000000000600082015250565b6000613a01601783612e27565b9150613a0c826139cb565b602082019050919050565b60006020820190508181036000830152613a30816139f4565b9050919050565b6000613a42826127ad565b91507f8000000000000000000000000000000000000000000000000000000000000000821415613a7557613a7461351e565b5b816000039050919050565b60007fffffffff0000000000000000000000000000000000000000000000000000000082169050919050565b613ab581613a80565b82525050565b600081519050919050565b600082825260208201905092915050565b6000613ae282613abb565b613aec8185613ac6565b9350613afc818560208601612e38565b613b05816127e8565b840191505092915050565b600061010082019050613b26600083018b612c58565b613b33602083018a612a25565b613b406040830189612b16565b613b4d6060830188612c58565b613b5a6080830187613aac565b613b6760a0830186612a25565b613b7460c0830185612a25565b81810360e0830152613b868184613ad7565b90509998505050505050505050565b6000613ba0826127ad565b9150613bab836127ad565b9250817f7fffffffffffffffffffffffffffffffffffffffffffffffffffffffffffffff03831360008312151615613be657613be561351e565b5b817f8000000000000000000000000000000000000000000000000000000000000000038312600083121615613c1e57613c1d61351e565b5b828201905092915050565b6000613c34826127ad565b9150613c3f836127ad565b9250827f7fffffffffffffffffffffffffffffffffffffffffffffffffffffffffffffff0482116000841360008413161615613c7e57613c7d61351e565b5b817f80000000000000000000000000000000000000000000000000000000000000000583126000841260008413161615613cbb57613cba61351e565b5b827f80000000000000000000000000000000000000000000000000000000000000000582126000841360008412161615613cf857613cf761351e565b5b827f7fffffffffffffffffffffffffffffffffffffffffffffffffffffffffffffff0582126000841260008412161615613d3557613d3461351e565b5b828202905092915050565b6000613d4b826127ad565b9150613d56836127ad565b925082613d6657613d6561389a565b5b600160000383147f800000000000000000000000000000000000000000000000000000000000000083141615613d9f57613d9e61351e565b5b828205905092915050565b6000613db582612bf8565b9050919050565b60008160601b9050919050565b6000613dd482613dbc565b9050919050565b6000613de682613dc9565b9050919050565b613dfe613df982613daa565b613ddb565b82525050565b6000819050919050565b613e1f613e1a826129c2565b613e04565b82525050565b6000613e318285613ded565b601482019150613e418284613e0e565b6020820191508190509392505050565b6000606082019050613e666000830186612c58565b613e736020830185612a25565b8181036040830152613e858184613ad7565b9050949350505050565b7f756e61626c6520746f207472616e73666572416e6443616c6c20746f206f726160008201527f636c650000000000000000000000000000000000000000000000000000000000602082015250565b6000613eeb602383612e27565b9150613ef682613e8f565b604082019050919050565b60006020820190508181036000830152613f1a81613ede565b9050919050565b6000613f2c826129c2565b9150613f37836129c2565b9250817fffffffffffffffffffffffffffffffffffffffffffffffffffffffffffffffff0483118215151615613f7057613f6f61351e565b5b828202905092915050565b60008160011c9050919050565b6000808291508390505b6001851115613fd257808604811115613fae57613fad61351e565b5b6001851615613fbd5780820291505b8081029050613fcb85613f7b565b9450613f92565b94509492505050565b600082613feb57600190506140a7565b81613ff957600090506140a7565b816001811461400f576002811461401957614048565b60019150506140a7565b60ff84111561402b5761402a61351e565b5b8360020a9150848211156140425761404161351e565b5b506140a7565b5060208310610133831016604e8410600b841016171561407d5782820a9050838111156140785761407761351e565b5b6140a7565b61408a8484846001613f88565b925090508184048111156140a1576140a061351e565b5b81810290505b9392505050565b60006140b9826129c2565b91506140c4836129c2565b92506140f17fffffffffffffffffffffffffffffffffffffffffffffffffffffffffffffffff8484613fdb565b90509291505056fea2646970667358221220032af5a7a0aae7c2afbf6fe3fb00aaa1451d57697682485e33e568c499b2436d64736f6c634300080c0033",
  "linkReferences": {},
  "deployedLinkReferences": {}
}